:100000000C9435000C945D000C945D000C945D0024
:100010000C945D000C945D000C945D000C945D00EC
:100020000C945D000C945D000C945D000C945D00DC
:100030000C945D000C945D000C945D000C945D00CC
:100040000C94E7010C945D000C9457020C9431025F
:100050000C945D000C945D000C945D000C945D00AC
:100060000C945D000C945D001D0411241FBECFEFA5
:10007000D8E0DEBFCDBF11E0A0E0B1E0E0E6FDE0FA
:1000800002C005900D92AE31B107D9F721E0AEE183
:10009000B1E001C01D92A43CB207E1F710E0C5E356
:1000A000D0E004C02197FE010E94A806C433D10706
:1000B000C9F70E9489020C94AE060C9400003FB769
:1000C000F8948091230190912401A0912501B09191
:1000D000260126B5A89B05C02F3F19F00196A11D4A
:1000E000B11D3FBFBA2FA92F982F8827BC01CD0182
:1000F000620F711D811D911D42E0660F771F881FE1
:10010000991F4A95D1F70895AF92BF92CF92DF928F
:10011000EF92FF920F931F93CF93DF936C017B01BC
:100120008B01040F151FEB015E01AE18BF08C0174D
:10013000D10759F06991D601ED91FC910190F081C0
:10014000E02DC6010995892B79F7C501DF91CF9183
:100150001F910F91FF90EF90DF90CF90BF90AF90E5
:100160000895FC01538D448D252F30E0842F90E0BD
:10017000821B930B541710F0CF96089501970895A2
:10018000FC01918D828D981761F0A28DAE0FBF2F6B
:10019000B11D5D968C91928D9F5F9F73928F90E0C1
:1001A00008958FEF9FEF0895FC01918D828D981730
:1001B00031F0828DE80FF11D858D90E008958FEF6D
:1001C0009FEF0895FC01918D228D892F90E0805C36
:1001D0009F4F821B91098F739927089587E291E0C1
:1001E0000E94E20021E0892B09F420E0822F08958B
:1001F00080E090E0892B29F00E94EE0081110C94A0
:1002000000000895FC01A48DA80FB92FB11DA35AB9
:10021000BF4F2C91848D90E001968F739927848F26
:10022000A689B7892C93A089B1898C918370806449
:100230008C93938D848D981306C00288F389E02DEA
:1002400080818F7D80830895EF92FF920F931F939B
:10025000CF93DF93EC0181E0888F9B8D8C8D981379
:100260001AC0E889F989808185FF15C09FB7F89485
:10027000EE89FF896083E889F989808183708064D1
:1002800080839FBF81E090E0DF91CF911F910F911C
:10029000FF90EF900895F62E0B8D10E00F5F1F4F2B
:1002A0000F731127E02E8C8D8E110CC00FB607FC3A
:1002B000FACFE889F989808185FFF5CFCE010E94C8
:1002C0000201F1CFEB8DEC0FFD2FF11DE35AFF4F33
:1002D000F0829FB7F8940B8FEA89FB898081806256
:1002E000CFCF682F87E291E00C942401CF93DF9366
:1002F000EC01888D8823B9F0AA89BB89E889F9893E
:100300008C9185FD03C0808186FD0DC00FB607FC72
:10031000F7CF8C9185FFF2CF808185FFEDCFCE01A5
:100320000E940201E9CFDF91CF910895FC01019075
:100330000020E9F73197AF01481B590BBC0187E258
:1003400091E00C9484008F929F92AF92BF920F9392
:100350001F93CF93DF93CDB7DEB7A1970FB6F89475
:10036000DEBF0FBECDBF19A2423008F44AE08E01B5
:100370000F5D1F4F842E912CB12CA12CA50194014F
:100380000E948606E62FB901CA01EA30F4F4E05D66
:10039000D801EE938D01232B242B252B79F790E0A8
:1003A00080E0109719F0CD010E949601A1960FB63A
:1003B000F894DEBF0FBECDBFDF91CF911F910F919B
:1003C000BF90AF909F908F900895E95CE1CF1F920E
:1003D0000F920FB60F9211242F933F938F939F93F9
:1003E000AF93BF9380911F0190912001A0912101B3
:1003F000B091220130911E0123E0230F2D3758F5D3
:100400000196A11DB11D20931E0180931F019093A1
:100410002001A0932101B0932201809123019091AA
:100420002401A0912501B09126010196A11DB11DC5
:100430008093230190932401A0932501B09326017A
:10044000BF91AF919F918F913F912F910F900FBED0
:100450000F901F90189526E8230F0296A11DB11D3D
:10046000D2CF1F920F920FB60F9211242F933F936A
:100470004F935F936F937F938F939F93AF93BF93AC
:10048000EF93FF9387E291E00E940201FF91EF91C9
:10049000BF91AF919F918F917F916F915F914F919C
:1004A0003F912F910F900FBE0F901F9018951F92A4
:1004B0000F920FB60F9211242F938F939F93EF9368
:1004C000FF93E0913701F09138018081E0913D0187
:1004D000F0913E0182FD1BC09081809140018F5FB1
:1004E0008F7320914101821741F0E0914001F0E0CB
:1004F000E95DFE4F958F80934001FF91EF919F91B1
:100500008F912F910F900FBE0F901F9018958081A3
:10051000F4CF789484B5826084BD84B5816084BD55
:1005200085B5826085BD85B5816085BD80916E0091
:10053000816080936E0010928100809181008260C2
:1005400080938100809181008160809381008091FF
:1005500080008160809380008091B10084608093EE
:10056000B1008091B00081608093B00080917A00EA
:10057000846080937A0080917A00826080937A0010
:1005800080917A00816080937A0080917A008068FF
:1005900080937A001092C100E0913701F091380108
:1005A00082E08083E0913301F09134011082E09188
:1005B0003501F091360180E1808310923F01E09196
:1005C0003B01F0913C0186E08083E0913901F0919C
:1005D0003A01808180618083E0913901F0913A0194
:1005E000808188608083E0913901F0913A018081B7
:1005F00080688083E0913901F0913A0180818F7D9C
:10060000808310E4C0E0D0E00E945F004B015C01F9
:1006100092E3C92ED12CE12CF12C0E945F006819C5
:1006200079098A099B09683E734081059105A8F301
:1006300021E0C21AD108E108F10888EE880E83E0B3
:10064000981EA11CB11CC114D104E104F10429F7C6
:1006500010937C0080917A00806480937A0080916E
:100660007A0086FDFCCF6091780070917900072EAA
:10067000000C880B990B0E945F0520E030E040EAF7
:1006800050E40E94140620E030EC4FE754E40E944E
:10069000BC042EE432E647ED51EC0E9414062AEB2E
:1006A00039E845EB52E40E944B046B017C0120E0E9
:1006B00030E0A9010E94B70487FD27C020E030E0A8
:1006C00040EA52E4C701B6010E940F061816DCF199
:1006D000A7019601C701B6010E9481068823C1F0D7
:1006E00082E191E00E94960183E20E9471018AE01A
:1006F0000E947101209709F487CF0E94EE008823A1
:1007000009F482CF0E9400007FCFC12CD12C76014A
:1007100046015701E894B7F82FEF3FEF4FE75FE747
:10072000C501B4010E948106811114C02FEF3FEF73
:100730004FE75FE7C501B4010E94B704181654F4EF
:1007400086E191E0CFCFC12CD12C80EAE82E82E463
:10075000F82EDECF2FEF3FEF4FE75FE4C701B60182
:100760000E940F0618161CF48AE191E0BBCF2FEF10
:100770003FEF4FE75FECC701B6010E94B70487FD6A
:10078000F3CF20E030E0A901C701B6010E94B70411
:1007900087FF07C08DE20E947101F7FAF094F7F825
:1007A000F0942AE037ED43EA5BE3C701B6010E940B
:1007B0004B044B015C010E942E056B017C010E94E1
:1007C0005D059B01AC01C501B4010E944A044B01C7
:1007D0005C014AE0C701B6010E94A3018EE20E94BB
:1007E000710120E030E040E251E4C501B4010E9413
:1007F00014064B015C010E942E056B01F12CE12CCB
:100800004AE0C701B6010E94A301C701B6010E94D8
:100810005D059B01AC01C501B4010E944A0420E0C2
:1008200030E040E251E40E9414060E942E0590E060
:1008300080E04AE00E94A30157CFE7E2F1E0138293
:10084000128288EE93E0A0E0B0E084839583A683D3
:10085000B78384E091E09183808385EC90E0958775
:10086000848784EC90E09787868780EC90E0918B7A
:10087000808B81EC90E0938B828B82EC90E0958B67
:10088000848B86EC90E0978B868B118E128E138E64
:10089000148E08955058BB27AA270E9462040C9416
:1008A000D5050E94C70538F00E94CE0520F039F426
:1008B0009F3F19F426F40C94C4050EF4E095E7FB71
:1008C0000C94BE05E92F0E94E60558F3BA1762079B
:1008D00073078407950720F079F4A6F50C940806B1
:1008E0000EF4E0950B2EBA2FA02D0B01B90190014B
:1008F0000C01CA01A0011124FF27591B99F0593F8F
:1009000050F4503E68F11A16F040A22F232F342FD6
:100910004427585FF3CF469537952795A795F04024
:100920005395C9F77EF41F16BA0B620B730B840B39
:10093000BAF09150A1F0FF0FBB1F661F771F881FF1
:10094000C2F70EC0BA0F621F731F841F48F4879549
:1009500077956795B795F7959E3F08F0B0CF93953B
:10096000880F08F09927EE0F9795879508950E94B4
:100970009A0508F481E008950E94D0040C94D505EE
:100980000E94CE0558F00E94C70540F029F45F3F51
:1009900029F00C94BE0551110C9409060C94C40561
:1009A0000E94E60568F39923B1F3552391F3951B53
:1009B000550BBB27AA2762177307840738F09F5F80
:1009C0005F4F220F331F441FAA1FA9F335D00E2EED
:1009D0003AF0E0E832D091505040E695001CCAF75A
:1009E0002BD0FE2F29D0660F771F881FBB1F26171D
:1009F00037074807AB07B0E809F0BB0B802DBF01F4
:100A0000FF2793585F4F3AF09E3F510578F00C94C2
:100A1000BE050C9409065F3FE4F3983ED4F3869537
:100A200077956795B795F7959F5FC9F7880F911DE3
:100A30009695879597F90895E1E0660F771F881FCF
:100A4000BB1F621773078407BA0720F0621B730B82
:100A5000840BBA0BEE1F88F7E09508950E94EE050F
:100A600088F09F5798F0B92F9927B751B0F0E1F06F
:100A7000660F771F881F991F1AF0BA95C9F714C01F
:100A8000B13091F00E940806B1E008950C94080678
:100A9000672F782F8827B85F39F0B93FCCF3869558
:100AA00077956795B395D9F73EF4909580957095B5
:100AB00061957F4F8F4F9F4F0895E89409C097FB32
:100AC0003EF490958095709561957F4F8F4F9F4F25
:100AD0009923A9F0F92F96E9BB279395F695879569
:100AE00077956795B795F111F8CFFAF4BB0F11F42C
:100AF00060FF1BC06F5F7F4F8F4F9F4F16C08823D3
:100B000011F096E911C0772321F09EE8872F762F08
:100B100005C0662371F096E8862F70E060E02AF049
:100B20009A95660F771F881FDAF7880F9695879535
:100B300097F90895990F0008550FAA0BE0E8FEEF0A
:100B400016161706E807F907C0F012161306E40791
:100B5000F50798F0621B730B840B950B39F40A268A
:100B600061F0232B242B252B21F408950A2609F468
:100B7000A140A6958FEF811D811D089597F99F676C
:100B800080E870E060E008959FEF80EC0895002415
:100B90000A941616170618060906089500240A94E2
:100BA00012161306140605060895092E0394000C68
:100BB00011F4882352F0BB0F40F4BF2B11F460FFF7
:100BC00004C06F5F7F4F8F4F9F4F089557FD905820
:100BD000440F551F59F05F3F71F04795880F97FB01
:100BE000991F61F09F3F79F08795089512161306BB
:100BF0001406551FF2CF4695F1DF08C016161706EA
:100C00001806991FF1CF869571056105089408951E
:100C1000E894BB2766277727CB0197F908950E94B0
:100C20009A0508F48FEF08950E9427060C94D505C5
:100C30000E94C70538F00E94CE0520F0952311F0E0
:100C40000C94BE050C94C40511240C9409060E9452
:100C5000E60570F3959FC1F3950F50E0551F629F15
:100C6000F001729FBB27F00DB11D639FAA27F00D05
:100C7000B11DAA1F649F6627B00DA11D661F829F2C
:100C80002227B00DA11D621F739FB00DA11D621F11
:100C9000839FA00D611D221F749F3327A00D611D2E
:100CA000231F849F600D211D822F762F6A2F112410
:100CB0009F5750409AF0F1F088234AF0EE0FFF1F43
:100CC000BB1F661F771F881F91505040A9F79E3F9A
:100CD000510580F00C94BE050C9409065F3FE4F3C7
:100CE000983ED4F3869577956795B795F795E795F0
:100CF0009F5FC1F7FE2B880F911D9695879597F9F9
:100D000008950E949A05880B990B0895A1E21A2E66
:100D1000AA1BBB1BFD010DC0AA1FBB1FEE1FFF1F9F
:100D2000A217B307E407F50720F0A21BB30BE40BEF
:100D3000F50B661F771F881F991F1A9469F7609536
:100D40007095809590959B01AC01BD01CF010895F0
:100D5000EE0FFF1F0590F491E02D0994F894FFCF5A
:100D60000000000024018400B1007601E200C00010
:0E0D7000D4006E616E00696E66006F766600DC
:00000001FF
