:100000000C945D000C9485000C9485000C94850084
:100010000C9485000C9485000C9485000C9485004C
:100020000C9485000C9485000C9485000C94580366
:100030000C9485000C9485000C9485000C9485002C
:100040000C94B6020C9485000C9426030C940003C7
:100050000C9485000C9485000C9485000C9485000C
:100060000C9485000C94850000000008000201003B
:100070000003040700000000000000000000000072
:10008000250028002B0000000000240027002A0083
:10009000040404040404040402020202020203032E
:1000A0000303030301020408102040800102040836
:1000B00010200102040810202F0411241FBECFEFCE
:1000C000D8E0DEBFCDBF11E0A0E0B1E0E2E0FEE0AD
:1000D00002C005900D92A431B107D9F721E0A4E147
:1000E000B1E001C01D92AE3FB207E1F710E0CDE5EF
:1000F000D0E004C02197FE010E94F906CC35D1075B
:10010000C9F70E9467040C94FF060C94000090E06D
:10011000FC01EC55FF4F249180579F4FFC018491C7
:10012000882399F090E0880F991FFC01EA57FF4F50
:10013000A591B491FC01E458FF4F859194918FB73C
:10014000F894EC91E22BEC938FBF08951F93CF931B
:10015000DF93EC01162F88818C3008F04DC0862F7C
:100160000E9487008881282F30E0F901EE0FFF1FE1
:10017000E20FF31FEE5CFE4F1F736081607C612B0A
:10018000608319821A822CE0622F0E94ED06829F02
:10019000B001112430E020E0AB01420F531FFA01FF
:1001A000EE0FFF1FE40FF51FEE5CFE4F908196FDF2
:1001B00016C02F5F3F4F2C30310571F781110FC0F2
:1001C0001092800082E0809381001092850010924E
:1001D0008400B19A80916F00826080936F00E88103
:1001E0008E2F90E0FC01EE0FFF1FE80FF91FEE5C71
:1001F000FE4F8081806480838881DF91CF911F9141
:10020000089590E0FC01E859FF4F2491FC01EC5562
:10021000FF4F3491FC01E057FF4FE491EE23C9F00A
:10022000222339F0233001F1A8F4213019F12230D2
:1002300029F1F0E0EE0FFF1FE458FF4FA591B491B4
:100240008FB7F894EC91611126C030953E233C9312
:100250008FBF08952730A9F02830C9F0243049F71E
:10026000809180008F7D03C0809180008F77809384
:100270008000DFCF84B58F7784BDDBCF84B58F7DE1
:10028000FBCF8091B0008F778093B000D2CF809168
:10029000B0008F7DF9CF3E2BDACF3FB7F894809135
:1002A0002E0190912F01A0913001B091310126B51E
:1002B000A89B05C02F3F19F00196A11DB11D3FBF9E
:1002C000BA2FA92F982F8827BC01CD01620F711D6D
:1002D000811D911D42E0660F771F881F991F4A9567
:1002E000D1F70895AF92BF92CF92DF92EF92FF9233
:1002F0000F931F93CF93DF936C017B018B01040F4E
:10030000151FEB015E01AE18BF08C017D10759F0E9
:100310006991D601ED91FC910190F081E02DC6012B
:100320000995892B79F7C501DF91CF911F910F9125
:10033000FF90EF90DF90CF90BF90AF900895FC01B9
:10034000538D448D252F30E0842F90E0821B930B3A
:10035000541710F0CF96089501970895FC01918DE0
:10036000828D981761F0A28DAE0FBF2FB11D5D96E3
:100370008C91928D9F5F9F73928F90E008958FEF85
:100380009FEF0895FC01918D828D981731F0828D39
:10039000E80FF11D858D90E008958FEF9FEF089590
:1003A000FC01918D228D892F90E0805C9F4F821BF4
:1003B00091098F739927089586E591E00E94D001F5
:1003C00021E0892B09F420E0822F089580E090E05D
:1003D000892B29F00E94DC0181110C940000089502
:1003E000FC01A48DA80FB92FB11DA35ABF4F2C91AA
:1003F000848D90E001968F739927848FA689B789A1
:100400002C93A089B1898C91837080648C93938D97
:10041000848D981306C00288F389E02D80818F7D3A
:1004200080830895EF92FF920F931F93CF93DF93F2
:10043000EC0181E0888F9B8D8C8D98131AC0E88920
:10044000F989808185FF15C09FB7F894EE89FF89EF
:100450006083E889F98980818370806480839FBF8D
:1004600081E090E0DF91CF911F910F91FF90EF908D
:100470000895F62E0B8D10E00F5F1F4F0F7311279D
:10048000E02E8C8D8E110CC00FB607FCFACFE889D8
:10049000F989808185FFF5CFCE010E94F001F1CF6F
:1004A000EB8DEC0FFD2FF11DE35AFF4FF0829FB74C
:1004B000F8940B8FEA89FB8980818062CFCFCF933C
:1004C000DF93EC01888D8823B9F0AA89BB89E8897C
:1004D000F9898C9185FD03C0808186FD0DC00FB622
:1004E00007FCF7CF8C9185FFF2CF808185FFEDCFA0
:1004F000CE010E94F001E9CFDF91CF910895DC0198
:10050000EC91EC3090F511968C91119728E830E041
:10051000281B310987FD3395220F331F220F331F0C
:100520006217730784F012968C9128E532E0281B3D
:10053000310987FD3395220F331F220F331F6217B6
:1005400073070CF49B0122503109220F331F4FB760
:10055000F8948E2F90E0FC01EE0FFF1FE80FF91FBB
:10056000EE5CFE4F328321834FBF08951F920F929E
:100570000FB60F9211242F933F938F939F93AF93B6
:10058000BF9380912A0190912B01A0912C01B091F1
:100590002D013091290123E0230F2D3758F50196C5
:1005A000A11DB11D2093290180932A0190932B0155
:1005B000A0932C01B0932D0180912E0190912F01D9
:1005C000A0913001B09131010196A11DB11D809320
:1005D0002E0190932F01A0933001B0933101BF9170
:1005E000AF919F918F913F912F910F900FBE0F90E0
:1005F0001F90189526E8230F0296A11DB11DD2CF9A
:100600001F920F920FB60F9211242F933F934F9387
:100610005F936F937F938F939F93AF93BF93EF936A
:10062000FF9386E591E00E94F001FF91EF91BF9169
:10063000AF919F918F917F916F915F914F913F917A
:100640002F910F900FBE0F901F9018951F920F9231
:100650000FB60F9211242F938F939F93EF93FF93D5
:10066000E0916601F09167018081E0916C01F09169
:100670006D0182FD1BC0908180916F018F5F8F7330
:1006800020917001821741F0E0916F01F0E0EA5A89
:10069000FE4F958F80936F01FF91EF919F918F9106
:1006A0002F910F900FBE0F901F9018958081F4CF5F
:1006B0001F920F920FB60F9211242F933F934F93D7
:1006C0005F936F937F938F939F93AF93BF93CF93DA
:1006D000DF93EF93FF9380911401C0911501D0E057
:1006E00087FF24C01092850010928400809114012D
:1006F0008F5F8093140180911401082E000C990BD8
:100700008C179D0724F4809114018C30C4F18091E2
:10071000840090918500049680349C4908F47AC046
:100720008091840090918500049676C08091140198
:10073000082E000C990B8C179D07C4F6E09114014C
:100740008E2FEE0F990BFC01EE0FFF1FE80FF91F24
:10075000EE5CFE4F808186FFC9CFE09114018E2FA1
:10076000EE0F990BFC01EE0FFF1FE80FF91FEE5C77
:10077000FE4F808160E08F730E940101B7CF20910E
:10078000840030918500E09114018E2FEE0F990BBB
:10079000FC01EE0FFF1FE80FF91FEE5CFE4F818199
:1007A0009281820F931F9093890080938800E0913B
:1007B00014018E2FEE0F990BFC01EE0FFF1FE80FB7
:1007C000F91FEE5CFE4F808186FF11C0E09114019D
:1007D0008E2FEE0F990BFC01EE0FFF1FE80FF91F94
:1007E000EE5CFE4F808161E08F730E940101FF91FA
:1007F000EF91DF91CF91BF91AF919F918F917F91B9
:100800006F915F914F913F912F910F900FBE0F907D
:100810001F90189580E49CE990938900809388004C
:100820008FEF80931401E3CFFC01909115019C3070
:1008300098F481E0890F809315019083892F90E0CF
:10084000FC01EE0FFF1FE80FF91FEE5CFE4F88EB77
:100850009BE09283818308958FEF80830895E6E57E
:10086000F1E01382128288EE93E0A0E0B0E084838E
:100870009583A683B78384E091E09183808385ECA0
:1008800090E09587848784EC90E09787868780EC5A
:1008900090E0918B808B81EC90E0938B828B82EC4B
:1008A00090E0958B848B86EC90E0978B868B118EF5
:1008B000128E138E148E89EF91E00E94140486EF3D
:1008C00091E00E94140483EF91E00C941404789456
:1008D00084B5826084BD84B5816084BD85B5826045
:1008E00085BD85B5816085BD80916E0081608093F6
:1008F0006E0010928100809181008260809381005F
:10090000809181008160809381008091800081606E
:10091000809380008091B10084608093B1008091C9
:10092000B00081608093B00080917A0084608093F1
:100930007A0080917A00826080937A0080917A00B8
:10094000816080937A0080917A00806880937A0039
:100950001092C100109228011092270110922601D6
:100960001092250110922401109223018AE00E9426
:10097000870089E00E94870069E070E086EF91E0DF
:100980000E94A6006AE070E083EF91E00E94A6005A
:1009900063E070E089EF91E00E94A600E0916601BB
:1009A000F091670182E08083E0916201F091630140
:1009B0001082E0916401F091650180E180831092E2
:1009C0006E01E0916A01F0916B0186E08083E09115
:1009D0006801F0916901808180618083E091680104
:1009E000F0916901808188608083E0916801F091D5
:1009F0006901808180688083E0916801F0916901DC
:100A000080818F7D808368E8262E312C08E512E0F6
:100A100074EB872E912CA12CB12C86E591E00E94DD
:100A2000D001181619060CF074C056E1E52E51E0FD
:100A3000F52ED0E0C0E02FB7F89480912A01909174
:100A40002B01A0912C01B0912D012FBF80935E014D
:100A500090935F01A0936001B093610186E591E0FE
:100A60000E94AE0197FFFBC02FB7F89480912A0136
:100A700090912B01A0912C01B0912D012FBF40919D
:100A80005E0150915F016091600170916101841B72
:100A9000950BA60BB70B40915A0150915B016091E9
:100AA0005C0170915D0184179507A607B707B0F246
:100AB000CA5EDE4F188262E171E086E191E00E9439
:100AC0005606D0E0C0E0009721F1209771F40E9413
:100AD00038069093280180932701219662E171E006
:100AE00090E080E00E945606EECFC130D10539F487
:100AF0000E9438069093260180932501EECFC230E4
:100B0000D10559F70E943806909324018093230160
:100B1000E4CF6091270170912801603222E07207D2
:100B2000BCF58091FA016101C81AD10887FDD39400
:100B3000CC0CDD1CCC0CDD1C0D2C000CEE08FF08D1
:100B40008091FB019801281B310987FD3395220F05
:100B5000331F220F331F032E000C440B550B2C198F
:100B60003D094E095F09DB01653B710514F0A4EBFB
:100B7000B0E0B7FF02C0B0E0A0E00E94B406A5015B
:100B800094010E948A06C20ED31EE41EF51EB60111
:100B900089EF91E00E947F0260912501709126010A
:100BA0006F3F710519F014F06FEF70E077FF02C02E
:100BB00070E060E023E0660F771F2A95E1F7645B41
:100BC0007B4F86EF91E00E947F026091230170913C
:100BD00024016F3F710519F014F06FEF70E077FF9B
:100BE00002C070E060E083E0660F771F8A95E1F74E
:100BF000645B7B4F83EF91E00E947F020E944D0176
:100C00002B013C019FE0C92ED12CE12CF12C0E943C
:100C10004D016419750986099709683E734081057D
:100C20009105A8F381E0C81AD108E108F10898EE0F
:100C3000490E93E0591E611C711CC114D104E104DA
:100C4000F10429F780E090E0892B09F4E6CE0E94B8
:100C5000DC01882309F4E1CE0E940000DECEF7011A
:100C600081937F012196CC30D10509F0E4CE20CFCD
:100C7000FC0188279927E89421912032E9F3293053
:100C800010F02E30C8F32B3241F02D3239F4689435
:100C900004C00E948206820F911D219120532A30A8
:100CA000C0F31EF4909581959F4F08954CEF51E04D
:100CB0000E945B060895FA01A191B081009719F492
:100CC0001097E1F0CD01DC01CD010D90002011F471
:100CD000C00113C0FB012191222319F02015D9F77F
:100CE000F3CFFB012191201519F41E92119606C035
:100CF0002223C1F70D900020A1F7D001FA01A193A2
:100D0000B08308957AE0979F902D879F802D910D55
:100D100011240895052E97FB1EF400940E94A1064D
:100D200057FD07D00E94BC0607FC03D04EF40C947C
:100D3000A10650954095309521953F4F4F4F5F4FFD
:100D4000089590958095709561957F4F8F4F9F4F37
:100D500008950E94DE06A59F900DB49F900DA49F5C
:100D6000800D911D11240895B7FF0C94A9060E94CF
:100D7000A906821B930B0895A1E21A2EAA1BBB1B86
:100D8000FD010DC0AA1FBB1FEE1FFF1FA217B30757
:100D9000E407F50720F0A21BB30BE40BF50B661F6D
:100DA000771F881F991F1A9469F760957095809531
:100DB00090959B01AC01BD01CF010895A29FB001A8
:100DC000B39FC001A39F700D811D1124911DB29F7F
:100DD000700D811D1124911D0895991B79E004C0A7
:100DE000991F961708F0961B881F7A95C9F780956A
:100DF0000895EE0FFF1F0590F491E02D0994F894EB
:020E0000FFCF22
:100E020000000000120272019F015F02D001AE01D8
:040E1200C2013A00DF
:00000001FF
